:020000043400C6
:10040000000010341DDD0234E1AA0034E3AA0034F8
:10041000E5AA0034E7AA0034E9AA0034EBAA0034C4
:10042000000000000000000000000000EDAA003401
:10043000EFAA003400000000F1AA0034F3AA00344F
:1004400079DD02340000000079DD023479DD023408
:1004500079DD023479DD023479DD023479DD02346C
:1004600079DD02340000000079DD023479DD0234E8
:1004700079DD0234799F003479DD02340000000018
:1004800079DD02340000000079DD023479DD0234C8
:1004900079DD023479DD023479DD023479DD02342C
:1004A00079DD023479DD023479DD023479DD02341C
:1004B00079DD023479DD023479DD023479DD02340C
:1004C00079DD023479DD023479DD023479DD0234FC
:1004D00079DD023479DD023479DD023479DD0234EC
:1004E00079DD02340000000079DD023479DD023468
:1004F00079DD023479DD023479DD0234F7AA003483
:1005000005AB003400000000000000000000000007
:1005100079DD0234ED9F023479DD023479DD023475
:1005200079DD023479DD023479DD023479DD02349B
:1005300079DD023479DD023479DD023479DD02348B
:1005400079DD023479DD023479DD023479DD02347B
:1005500079DD023479DD023479DD023479DD02346B
:0C0740000000000079DD023479DD023495
:100750000348044B834202D0034B03B11847704750
:1007600090F5053490F5053400000000064B07496C
:10077000C91A891048BF0131491003D0044B0BB18D
:1007800001481847704700BF90F5053490F50534CF
:100790000000000010B5064C237843B9FFF7D8FFDE
:1007A000044B13B10448AFF300800123237010BD44
:1007B00090F50534000000009413033408B5044B91
:1007C0001BB104490448AFF30080BDE80840CDE701
:1007D0000000000094F50534941303340A4D1446C8
:1007E0001A4603462E680D4600B5F06885B044B140
:1007F00006490095CDE90114054902F08DFD00F090
:10080000A9FF04490C46F4E758BA0534ECB10534A5
:10081000FCB10534F8B1053408B513460022FFF7E2
:10082000DDFF00BF2DE9F04F1D4640EA02039BB0FB
:1008300083469B07019240F00783171F18BF0127CB
:10084000019B9A085B000592002209930792019A86
:10085000062902FB01F35A440BEB030008920490B3
:1008600040F26A8101984FEA51080729A3EB00037F
:1008700000FB08B80BEB030413D0282900F2008218
:100880002646DA46414650460292A8470028029A78
:10089000C0F2E681314640460292A8470028029AFB
:1008A0004BDD002F53D1DBF80030D8F80010CBF827
:1008B0000010C8F80030089B4FF0000A03921E4653
:1008C0000693019BD046A246C3F10009A6423346D7
:1008D0005ED8594630460296A8470028029B40F34E
:1008E000FB8052460293C24690460CE02368D8F83B
:1008F00000102160C8F80030C8444FF0010A4C4491
:10090000A64200F2908059462046A84700282EDBD8
:10091000F5D1002FEAD0012F77D0019A4146234626
:1009200004EB020E1A78087803F8010B01F8012B8A
:10093000AEEB0302002AF5DCDEE731465046A8475D
:100940000028029AC0F29A81B046002FABD0012F46
:1009500000F00F825B46089E197898F8000003F8B3
:10096000010B08F8011BF11A0029F5DCA3E7C246C8
:10097000029B002F40F0A180336822683260236020
:10098000019B1E444C444FF001083346A642A0D9B7
:100990005146C246039A8846BAF1000F48D0069ADB
:1009A000B11AA2EB0B028A42A8BF0A46002A40F005
:1009B0002781049AA8EB04040198A2EB0802121AFA
:1009C000A24228BF2246002A40F0B181049BA142E6
:1009D000A3EB040605D3224633460C465E46114679
:1009E0009B46019B994240F2F180079A072A00F248
:1009F0008E81B4FBF3F4B1FBF3F11AAB03EBC2034A
:100A000043E91064531C079321E7C4462046059B25
:100A1000013B0268DCF80010002B40F8041B4CF886
:100A2000042BF5DC68E7DDE90232BAF1000FB6D13C
:100A3000089B04998B4233D2019B1646DDF8149033
:100A40005C42DDF824805E4525D9029607E0DAF89D
:100A500000203168CAF8001032605E451AD9B246EB
:100A6000264451463046A847002813DD002FEED01B
:100A7000012F54D0324606EB080C9AF8003011785A
:100A80000AF8011B02F8013BACEB0A03002BF4DC73
:100A90005E45E4D8029E019B1E44049B9E42D2D335
:100AA000079B002B00F08280079B1AAA013B07934B
:100AB00002EBC30353E910B1C9E6012F1FD0019A1D
:100AC000164422461978107803F8010B02F8011B2E
:100AD000F11A0029F6DC55E702D0019B1E44F5E629
:100AE000002F7CD1069932680B680A603360019B45
:100AF0001944019B4FF0010806911E44E6E620468A
:100B0000059AA446013A19680468002A43F8044B80
:100B100040F8041BF6DC019B64461E4432E7304675
:100B20004A46013ADAF800300168002A4AF8041B04
:100B300040F8043BF5DC90E78242B1D2019B1646B7
:100B4000DDF814905C42DDF82480B34525D202968E
:100B500007E0DAF800203168CAF8001032605E451C
:100B60001AD9B246264451463046A847002813DD1C
:100B7000002FEED0012F1CD0324606EB080C9AF85D
:100B8000003011780AF8011B02F8013BACEB0A03B4
:100B9000002BF4DC5E45E4D8029E019B1E44049BBE
:100BA0009E42D2D3079B002B7FF47EAF1BB0BDE8E3
:100BB000F08F30464A46013ADAF800300168002AE0
:100BC0004AF8041B40F8043BF5DCC8E7019B9C4253
:100BD0007FF666AF019BB346B4FBF3F137E6012F16
:100BE00000F0B680069A01995118107893F800C069
:100BF00002F801CB03F8010B881A0028F5DC78E72E
:100C0000022FA6EB020040F0E0805A44DC469CF83C
:100C100000E090F800900CF8019B00F801EBA2EBCB
:100C20000C0EBEF1000FF2DC049AA8EB040401984C
:100C3000A2EB0802121AA24228BF2246002A3FF461
:100C4000C5AE0498A0EB020C324418789CF8006002
:100C500003F8016B0CF8010BD01A0028F5DCB5E69F
:100C600031464046A8470028029AFFF61AAE3146A0
:100C70005046A8470028029AFFF666AED04610E616
:100C8000C908029200FB01F658460BEB060A7300F6
:100C90000BEB460951460393A8470028029AC0F27D
:100CA000C480494650460292A8470028029A75DD42
:100CB000A8EB06034146039208EB06091846029387
:100CC000A8470028039AC0F2A080494640460392F4
:100CD000A8470028039A59DD73000292A4EB030988
:100CE0004E4448463146A8470028029A5EDB21461A
:100CF00030460292A8470028029A3FF7C3AD21462A
:100D00004846A8470028029A5DDB2646BAE5019AC4
:100D100058462B469046B1FBF2F1FFF783FD444560
:100D20007FF6C2AE019BB346B4FBF3F18FE50498A6
:100D3000022FA0EB020C87D09208013A1868DCF869
:100D40000060002A43F8046B4CF8040BF5DC3DE628
:100D5000DDE90520A446013A01681C68002A40F834
:100D6000044B43F8041BF6DC06996446019B1944C6
:100D7000BFE65846059B013B0168D8F80060002B90
:100D800040F8046B48F8041BF5DC94E549460298EA
:100D9000A8470028039A45DBC8469DE749465846C0
:100DA000A8470028029A4DDBCA4681E72146304613
:100DB000A8470028029AFFF665AD21464846A84795
:100DC0000028029AA1DB4E465CE592085E468E46FC
:100DD0009C46013A33680168002A46F8041B40F833
:100DE000043BF6DC049AA8EB040401987146A2EBDC
:100DF00008026346121AA24228BF2246002A3FF484
:100E0000E5AD0498A0EB020C96E749464046A8479A
:100E10000028039AFFF660AF49460298A8470028C9
:100E2000039AB9DBDDF8088056E749465046A847E3
:100E30000028029AFFF63CAF49465846A8470028CA
:100E4000029AB1DBDA4633E70227F9E410B500294C
:100E50001B4C9AB024682DDB009004904FF4027074
:100E6000ADF80C004FF00000199013D001394FF687
:100E7000FF70029105916946ADF80E00204600F022
:100E8000CDF9421C01DA8B232360009B00221A70EB
:100E90001AB010BD4FF6FF70029105916946ADF88A
:100EA0000E00204600F0BAF9431C01DA8B232360C0
:100EB0001AB010BD8B234FF0FF302360F8E700BF5E
:100EC00058BA053430B514469BB00546002C2EDBCD
:100ED0001A464FF402730091ADF80C304FF0000346
:100EE0000491199313D04FF6FF73013C6946ADF896
:100EF0000E301E9B0294059400F090F9421C01DA1A
:100F00008B232B60009B00221A701BB030BD4FF664
:100F1000FF7369460294ADF80E301E9B059400F0F5
:100F20007DF9431C01DA8B232B601BB030BD8B2372
:100F30004FF0FF302B60F8E720F0030110F00300C2
:100F4000C0F1000051F8043B00F1040C4FEACC0C56
:100F50006FF000021CBF22FA0CF213434FF0010C99
:100F60004CEA0C2C4CEA0C4CA3EB0C0222EA0302D8
:100F700012EACC1204BF51F8043B0430F4D0C2F1A1
:100F8000000102EA0102B2FA82F2C2F11F0200EB92
:100F9000D200704780EA0102844612F0030F4FD15D
:100FA00011F0030F32D14DF8044D11F0040F51F838
:100FB000043B0BD0A3F101329A4312F0803F04BFEF
:100FC0004CF8043B51F8043B16D100BF51F8044BD8
:100FD000A3F101329A4312F0803FA4F101320BD108
:100FE0004CF8043BA24312F0803F04BF51F8043B8D
:100FF0004CF8044BEAD023460CF8013B13F0FF0FEA
:101000004FEA3323F8D15DF8044B704711F0010F1C
:1010100006D011F8012B0CF8012B002A08BF7047ED
:1010200011F0020FBFD031F8022B12F0FF0F16BFE4
:101030002CF8022B8CF8002012F47F4FB3D17047AC
:1010400011F8012B0CF8012B002AF9D1704700BFD1
:101050002DE9F0478E6881460C461D469E4290461B
:10106000086836D8B1F90C3013F4906F0DD13546BD
:101070002A46414601F0B8FFA26823680020921B6F
:101080002B44A2602360BDE8F0876769096917EB0C
:101090004707A0EB010A05F1010048BF01375044A2
:1010A0007F10B8423A4601D9074602465B0512D581
:1010B0001146484600F0ACFF0646F8B15246216999
:1010C00002F096F8A38923F4906343F08003A38190
:1010D00006E01E46CCE7484602F032F9064648B123
:1010E00006EB0A00A7EB0A0326612E466761A360A0
:1010F0002060BDE72169484601F022FFA3890C2248
:101100004FF0FF3043F04003C9F80020A381BAE755
:1011100093682DE9F04F924683B01768002B75D085
:101120004FF0000B81460C468B680A685D4647E02D
:10113000B4F90C3013F4906F2ED0D4E9041616EBEA
:101140004606A2EB010848BF013608F101007610FF
:101150002844B042324601D9064602465B0539D5DD
:101160001146484600F054FF019000283CD042460A
:10117000216902F03DF8A289019B22F4906242F0BD
:101180008002A281A6EB080203EB08006661A84674
:101190002E46A260236120603246594601F024FFAA
:1011A000DAF80810A3682268491BA3EB080332444D
:1011B000A3602260CAF8081041B3D7E900B5083728
:1011C00098461046002DF8D09D421E46B0D2A84643
:1011D0002E46E1E7484602F0B3F803460028D1D195
:1011E0002169484601F0ACFEA3890C224FF0FF3084
:1011F00043F04003C9F800200022A3810023CAF86D
:101200000820CAF8043003B0BDE8F08F00200023A6
:10121000CAF8043003B0BDE8F08F00BF2DE9F04FED
:101220001C468B899FB089461D068246934603D58E
:101230000B69002B00F0E78000237C4E012705940A
:101240000B9343F22003ADF831309BF800205D464C
:1012500052B1252A08D02C4615F8012F0AB1252AAB
:10126000F9D1B5EB0B0360D1002A6DD000234FF00C
:10127000FF320135069309938DF85B301C93CDE95D
:10128000072305E0801B254607FA00F00343069379
:101290002C460522304614F8011B02F0DBFC069BAD
:1012A000A3460028EED1D90602D520228DF85B2076
:1012B0001A0702D52B228DF85B2029782A294BD1D9
:1012C000059A111D1268002A059175DB099269784B
:1012D0002E2955D0564C0322204602F0BBFC38B1D3
:1012E000001B4022069B0BF1010B82401343069327
:1012F0001BF8011B06224F488DF8301002F0AAFCA3
:1013000000285FD04C4B002B4FD005AC4B4B4A46CE
:1013100006A95046009400F00BFC8046B8F1FF3F50
:1013200012D00B9B43440B938FE75A4649465046D5
:101330000393FFF78DFE013006D00B9A039B1A44EE
:101340000B926278002A91D1B9F80C305B0669D40F
:101350000B981FB0BDE8F08FA1F13002092A50D8D8
:10136000099B00E00134217803EB830302EB430384
:10137000A1F13002092AF5D92E29A3460993A9D152
:101380009BF801102A2927D1059B0BF10202191D98
:101390001B68002B07930591B8BF4FF0FF339BF8F4
:1013A00002109346B8BF079394E7059B073323F0D9
:1013B000070308330593B4E7524243F0020309924E
:1013C000069384E705A81D4B4A4606A9009050469F
:1013D00002F076F88046A1E7A1F1300200230BF17C
:1013E000010B092A07933FF675AF03EB83031BF844
:1013F000011F02EB4303A1F13002092AF5D907933B
:1014000068E7AB4664E7402100F002FEC9F800003F
:10141000C9F8100018B14023C9F814300CE70C23A8
:10142000CAF800304FF0FF3093E700BF2CB205340C
:1014300034B2053438B20534311B00345110003455
:101440000F4B70B50F4DAB42A3EB050607D0B6109E
:101450000024013455F8043B9847A642F9D80A4DB8
:101460002FF098FF094B5E1BAB424FEAA60606D051
:101470000024013455F8043B9847A642F9D870BDC2
:1014800050BA053450BA053450BA053454BA05344C
:10149000036A2DE9F04180460E468468002B3BD05C
:1014A000A3891B0717D52369ABB1013EA36816F8C2
:1014B000015F013BA360EDB1002B07DAA76922466B
:1014C000294640469F4210DC0A2D0ED023685A1C44
:1014D00022601D70EAE72146404601F027FE002801
:1014E000E3D04FF0FF30BDE8F08102F0A3FD013002
:1014F000DCD1F6E7002B09DA22460A21404602F049
:1015000099FD0130EDD00A20BDE8F08123680A2260
:10151000591C21601A70F6E700F0F4F8C0E700BF2C
:10152000024B01461868FFF7B3BF00BF58BA053435
:1015300000207047024A0349034801F0D5BD00BFAF
:10154000A8BA0534291900345CBA05340C4B41683B
:10155000994210B5044601D000F0E6F9A168094BA4
:10156000994202D0204600F0DFF9E168064B99422B
:1015700004D02046BDE8104000F0D6B910BD00BF31
:10158000ACF5053414F605347CF6053400207047BC
:101590002DE9F8432A4900252A4C04230822DFF8C4
:1015A000B890C4F8381104F15C002946DFF8AC802B
:1015B000254F264EE36025606566A561C4E90155A7
:1015C000C4E9045500F0CEF8214B0822294604F165
:1015D000C40063672567C4F8CC50C4F88050266304
:1015E000C4E90849C4E90A87C4E91A55C4E91E5583
:1015F00000F0B8F804F1680329460822C4F88830DE
:1016000004F59670134BC4F8D850C4F8DC30C4F815
:101610003451C4F8E850C4E92398C4E92576C4E9F4
:101620003455C4E9385500F09DF804F1D003C4E9FD
:101630003D98C4E93F76C4F8F030BDE8F88300BFB8
:1016400035150034ACF50534554C00347D4C003470
:101650000900010012000200ED4B0034154C00346B
:10166000F8B5254B0646D3F83831002B3DD0234F33
:10167000D7E90134013B04D51DE05A1C04F168048C
:1016800019D0B4F90C50013B002DF6D11C4B0822A7
:10169000294604F15C006566E3602560A561C4E944
:1016A0000155C4E9045500F05DF8C4E90D55C4E9DD
:1016B00012552046F8BD3D680DB12F46D8E74FF4CE
:1016C000D671304600F0A4FC044688B104230560BE
:1016D0000C302946254640F8083C4FF4D072A060F3
:1016E00000F040F83C602F46C2E7FFF751FFBEE72D
:1016F0000C2338603360DCE7ACF50534A8BA053458
:101700000100FFFF036A03B17047044B044AD3F89A
:1017100038310262002BF7D13AE700BFACF505344F
:101720004D150034704700BF704700BF024A0020CB
:10173000024901F0D9BC00BFA8BA05343115003404
:10174000024A0020024901F0CFBC00BFA8BA05340C
:101750008D150034062008B503F0BEFC012008F00A
:1017600071FC00BF70B5860747D0541E002A3ED0DA
:10177000CAB2034601E0013C39D303F8012B9D07AF
:10178000F9D1032C2CD9CDB20F2C05EB052505EB97
:10179000054535D9A4F1100C03F1100E1A462CF0B2
:1017A0000F064FEA1C1CB644C2E90055C2E90255B7
:1017B00010327245F8D10CF1010214F00C0F04F054
:1017C0000F0C03EB021213D0ACF1040323F003035C
:1017D0000433134442F8045B9342FBD10CF003043E
:1017E0002CB1C9B21C4403F8011BA342FBD170BD4C
:1017F00064461346002CF4D1F9E703461446C0E7CB
:101800001A46A446E0E700BFB1F90C302DE9F041DB
:101810001E070C4680463DD44A68002A55DDE56A1D
:10182000002D34D00022D8F80060216AC8F80020CA
:1018300013F4805256D101234046A847451C024666
:1018400065D0B4F90C30E56A216A580705D563689C
:10185000D21A636B0BB1236CD21A00234046A847FF
:10186000431C41D00023636023692360A389DF0404
:1018700000D56065616BC8F8006041B104F14403B4
:10188000994202D0404601F05BFB002363630020D5
:10189000BDE8F0810E69002EF9D09B070D680E603F
:1018A0000CBF4B690023AD1B8B600BE02B4632460F
:1018B000216A4046A76AB847B0F1000CA5EB0C05B9
:1018C000664406DD002DF1DCE1E70A6C002AA6DCA7
:1018D000DDE7B4F90C3043F040034FF0FF30A38153
:1018E000BDE8F081626DB0E7D8F80010B4F90C30B3
:1018F0001D29F0D80B4ACA40D507ECD500226260FA
:1019000022692260DA04B5D50029B2D0B2E7D8F84E
:101910000030002B95D01D2B01D0162BD9D1C8F843
:101920000060B4E7010040200B69B3B110B5044674
:1019300082B008B1036A5BB1B1F90C3013B9002071
:1019400002B010BD204602B0BDE81040FFF75CBFFA
:101950000191FFF7D7FE0199EEE70020704700BF25
:10196000B8B10E4A38B50369044615682BB10DB1FC
:101970002B6A53B1B4F90C300BB9002038BD2146A5
:101980002846BDE83840FFF73FBF2846FFF7BAFEBC
:10199000F0E7034A0349044801F0A6BB58BA0534EE
:1019A000A8BA0534291900345CBA0534014B18680B
:1019B000704700BF58BA0534F0B52DED028BB0EE7C
:1019C000408B174685B00C4618EE902A0C9D0D9959
:1019D000002A4EDB0022652921F020061A7050D023
:1019E0002ADC45294DD0462928D003ABB0EE480B60
:1019F00022460221019302AB00932B4600F024FC07
:101A0000472E26D1FB073FD500EB040CB5EE408BEB
:101A1000F1EE10FA2BD0039B9C4506D930215A1CBD
:101A200003921970039B6345F9D31B1A0E9A136036
:101A300005B0BDEC028BF0BD6629D6D1032103AB06
:101A4000B0EE480B2246019302AB00932B4600F008
:101A5000FBFB462E00EB040CD8D10378302B15D0BD
:101A60002C68A444B5EE408BF1EE10FAD3D1634656
:101A7000DBE72D226529B1EE408B21F020061A709C
:101A8000AED101340221DAE7039BCEE7B5EE408BFD
:101A9000F1EE10FA03D12B689C446346C5E7C4F10C
:101AA0000104A4442C60DDE7002970B5027082B007
:101AB00038DB2B23092943702CDD0DF107051B4E64
:101AC000AE46A6FB01320C46F4460EF1FF3ED208AC
:101AD000632C02EB8203A1EB4303114603F13003B5
:101AE0000CF8013CEDDCACF102033031841CAB425C
:101AF0000EF8011C0BD2421C13F8011BAB4202F87A
:101B0000011FF9D10DF10903A3EB0C031C44201AAA
:101B100002B070BD3023041D19448370C170201AB7
:101B200002B070BD49422D23C4E700BFCDCCCCCC60
:101B30002DE9F04F8DB00C4616461F46DDF858A033
:101B4000054603F0ADF8D0F800904846FFF7F4F9E9
:101B5000002306900A93DAF800302268073394F8DD
:101B6000188023F0070393ED000B9FED9D6B083366
:101B7000B0EEC07BCAF80030B4EE467B84ED120BA9
:101B8000F1EE10FA6ADCB4EE400BF1EE10FA80F1DF
:101B90000582616842F4806208F0DF0A4B1C2DD098
:101BA00071BBBAF1470F2BD10121002322602846D7
:101BB000CDF80480616003930AAB029309AB0093F4
:101BC0000DF12303FFF7F8FE05900999C81C80F278
:101BD000F880A8F102085FFA88F80139424604F15A
:101BE00050000991FFF760FF0A9A82461318012AF4
:101BF000236140F33C810133236128E006216160C9
:101C0000002322602846CDF8048003930AAB029398
:101C100009AB00930DF12303FFF7CEFEBAF1470F96
:101C20000590D2D0B8F1650F0999D6D9B8F1660FF1
:101C300000F022810A9B8B4200F3CA802368216155
:101C4000DB0701D54B1C23614FF0000AA1659DF80D
:101C50002330CBB12D2384F8433015E0B5EEC00B13
:101C6000F1EE10FA02D52D2384F8433022F004025D
:101C70005D4B22605D4AB8F1470F98BF1A464FF09E
:101C8000000A03230592236133460BAA2146284606
:101C9000009701F087FB013023D0236858052BD42F
:101CA000059A236931462846B847013019D0226881
:101CB0009207E0680B9B19D5984217DD4FF000089A
:101CC00004F1190904E0E0680B9BC21A42450DDDDE
:101CD00001234A4631462846B847013008F1010839
:101CE000F1D14FF0FF300DB0BDE8F08F9842B8BF92
:101CF00018460DB0BDE8F08FB8F1650F31D994EDFD
:101D0000127BB5EE407BF1EE10FA73D10123384A15
:101D100031462846B8470130E3D0DDE9093A53455A
:101D200002DB2268D107C3D5069B4A4631462846C6
:101D3000B8470130D5D0BAF1010FB8DD0AF1FF3A4A
:101D40004FF0000904F11A0801E0D145AFD001239A
:101D5000424631462846B847013009F10109F4D11D
:101D6000BFE7DDF82880B8F1010F72DD0123059A85
:101D700031462846B8470130B3D0069B4A46314623
:101D80002846B8470130ACD008F1FF3B94ED127BF8
:101D9000B5EE407BF1EE10FA78D1B8F1010F62DDBB
:101DA0004FF0000904F11A0801E0D9455BD0012386
:101DB000424631462846B847013009F10109F4D1BD
:101DC0008FE7636899423FF704AF4FF0670831E748
:101DD0000029D4BFC1F1020201221344236133E779
:101DE000FFFFFFFFFFFFEF7F40B2053444B2053431
:101DF00050B20534099B002B53DD0A9BD4F858B030
:101E000007935B45A8BF5B46002B984608DD059A03
:101E100031462846B84701303FF463AFD4F858B094
:101E200028EAE872934574DD4FF0000A04F11A08BD
:101E3000934604E0A36DA3EB0B02524568DD01233A
:101E4000424631462846B84701300AF1010AF1D12D
:101E500047E7D9078AD4059A012331462846B8476F
:101E600001303FF43EAF534604F150021AE72268B6
:101E7000D2077FF5ECAEBEE6002963680ADD21617A
:101E8000002B39D001330B442361DDE6059A5B4614
:101E90000132E2E7002B34D12268D20731D401238A
:101EA0009CE70123454A31462846B84701303FF4B4
:101EB00018AFDDE9093A5AEA030324D0069B4A46E3
:101EC00031462846B84701303FF40BAF099B002B41
:101ED00071DA4FF0000904F11A0803E0099B5B4234
:101EE0004B4568DD0123424631462846B84701305C
:101EF00009F10109F2D1F4E62268D0077FF5A4AE1A
:101F0000C0E702336AE72268D3077FF5D1AED5E791
:101F10009B46099B079A9A4202DC2268D00708D5A3
:101F2000069B4A4631462846B84701303FF4D9AEB1
:101F3000099B079AA2EB0B0AD31A9A45A8BF9A46A7
:101F4000BAF1000F0CDD059B314628465B441A466A
:101F50005346B84701303FF4C4AE099B079AD31AE1
:101F60002AEAEA7A53457FF7A2AE4FF0000904F15E
:101F70001A08DDF81CB007E0099BABEB0303A3EBE9
:101F80000A034B457FF793AE01234246314628466C
:101F9000B847013009F10109EED1A2E610EE903AFE
:101FA000002B02DA2D2384F8433022F00402044B84
:101FB0002260044A5FE65346059A73E650B2053440
:101FC00048B205344CB2053470B5104E05460C4687
:101FD0003368B3B12146284602F0F6FD431C0CD00D
:101FE000C41C24F00304A04205D0211A284602F0A4
:101FF000EBFD013001D0204670BD4FF0FF3420468C
:1020000070BD194602F0E0FD3060E3E7E8F6053404
:102010002DE9F843CD1C064625F0030508350C2DA7
:1020200038BF0C25002D2EDBA9422CD8DFF8DC8030
:1020300001F082FDD8F804207AB1144603E0636809
:1020400022461C464BB123685B1BF8D40B2B1ED8D1
:102050009442636853D0536007E029463046FFF747
:10206000B3FF431C04461DD00560304601F066FDF9
:1020700004F10B00231D20F00700C21A01D01B1A27
:10208000A350BDE8F8830C2333600020F9E7611901
:102090009442256014BF5160C8F80410635163680E
:1020A0004B60E2E7D8F804701FB33C467F68002F0E
:1020B000FBD123683946304604EB030902F084FD66
:1020C000814516D123683046ED1A2946FFF77CFF7B
:1020D00001300ED02368D8F804202B4423605368C5
:1020E00083B1A34203D01A465B689C42FBD1002314
:1020F000B1E70C233046336001F020FDC5E7C8F896
:102100000430B2E7C8F80470AFE700BFE8F6053462
:102110002DE9F04F036985B00C69A342C0F29080AD
:10212000013C01F1140500F11408814655F82430F2
:102130004FEA840C58F8242005EB8407013308EBA0
:10214000840B9A42B2FBF3F642D30020AA46C6465D
:10215000CDF80C8003468846CDE901C505465AF8FE
:10216000042BDEF8001090B257454FEA124C06FBE4
:1021700000508AB24FEA104580B206FB0C55A2EB24
:1021800000021A44ABB24FEA1545C3EB224392B2A8
:1021900003EB114342EA03424FEA23434EF8042B78
:1021A000DDD24146DDF80C80DDE901C558F80C3080
:1021B00073B9ABF1040BD84504D307E0D84504F15B
:1021C000FF3403D25BF80439002BF7D0C9F8104074
:1021D000484602F085FA00282EDB0022414694464C
:1021E00055F8040B0B681FFA80FEAF429AB24FEA13
:1021F0001040A2EB0E026244C0EB224092B200EB10
:10220000134042EA00424FEA204C41F8042BE7D247
:1022100058F8242008EB84036AB9043B434504D8EA
:1022200007E0984504F1FF3403D253F80429002A4B
:10223000F7D0C9F810400136304605B0BDE8F08F40
:10224000002005B0BDE8F08F2DE9F04FC5690446C8
:1022500091462DED028B8FB057EC106B02910493D9
:102260008DED000B002D00F01482296849B16A68D9
:10227000012393404A608B6001F068FF0022E3690C
:102280001A60B7F10008C0F2AB8000231A9A1360FD
:10229000C34B33EA080300F0A9809DED008BB5EE37
:1022A000408BF1EE10FA0ED10123049A13601B9BB0
:1022B00013B1BC4B1B9A1360BB4E30460FB0BDEC44
:1022C000028BBDE8F08FB0EE480B0CAA0DA920469A
:1022D00002F078FB05465FEA185340F09E80DDE986
:1022E0000C23134403F23241202940F3DE81C1F173
:1022F000400108FA01F803F2124126FA01F148EA16
:10230000010107EE101AB8EE477B0121013B0A914B
:1023100017EE906A51EC170BA6F1F871B7EE086B47
:1023200005EE903A41EC170B37EE466BB8EEE54BF5
:102330009FED953B9FED967B9FED975BA6EE037B14
:10234000A4EE057BB5EEC07BFDEEC76BF1EE10FA97
:1023500016EE90AA08D5B8EEE66BB4EE476BF1EE38
:1023600010FA18BF0AF1FF3AD31ABAF1160F03F1A7
:10237000FF3600F243818D4A02EBCA0292ED007BE8
:10238000B4EEC78BF1EE10FA5FD50022002E0AF1F1
:10239000FF3A0992C0F2378100230593BAF1000F8A
:1023A00059DA059BCDF818A0A3EB0A030593CAF1EF
:1023B00000034FF0000A0393029B092B53D8052B0F
:1023C00040F37A81043B00270293029B023B032BDC
:1023D00000F28985DFE813F076037303680349038D
:1023E00028F000480123CDF804804FE7C8F3130814
:1023F00042F20F73049A58EA060813601DD01B9B23
:102400006B4E002B3FF459AFF31C1B9A3046136000
:102410000FB0BDEC028BBDE8F08F18EE906A002182
:10242000A3F2FF330C9AC6F313060A9151EC180B72
:1024300046F07F5141F4401170E71B9B5D4E002B2D
:102440003FF43BAF06F10803DFE7002B40F36E8457
:1024500000230993059300235644CDF818A0039355
:10246000029B092BABD9002301274FF0FF3B994674
:10247000029307970021E369CDF82CB059602046FC
:1024800001F024FE8046002800F03685E369BBF1A8
:102490000E0F8CBF002707F001071860002F00F017
:1024A000D9800699002940F30981404B01F00F02C1
:1024B000CF0503EBC20393ED006B4FEA211340F10C
:1024C000B7823D4A03F00F03032192ED087B88EEAB
:1024D000075B5BB1384AD80704D5013192ED007B28
:1024E00026EE076B5B1002F10802F4D185EE067B45
:1024F000099B3BB1B7EE006BB4EEC67BF1EE10FA70
:1025000000F11E8406EE901AB8EEE65BB1EE0C6B9D
:10251000A5EE076B16EE901A53EC162BA1F1507333
:10252000BBF1000F00F08280069908915946FDEE3C
:10253000C76B1E4F079843EC142B16EE903AB8EE7B
:10254000E65B07EBC102303337EE457BDBB212EDC1
:10255000026B88F8003008F10102002800F0B58213
:10256000B6EE003B83EE065B35EE445BB4EEC75B34
:10257000F1EE10FA00F34183B7EE002B0020B2EE2B
:10258000044B33E0AFF3008061436F63A787D23F12
:10259000B3C8608B288AC63FFB799F501344D33F52
:1025A0000000F07F51B2053450B20534F016033408
:1025B00060B2053454B20534E01703340130884268
:1025C00048DA27EE047B25EE045BFDEEC76BB8EE20
:1025D000E63B16EE903A303337EE437B02F8013B90
:1025E000B4EEC57BF1EE10FA00F1078332EE476BD3
:1025F000B4EEC56BF1EE10FAE0D5D4E20122002E64
:102600000992BFF6C9AEC3F1010300260593C5E6E2
:1026100006EE901AB1EE0C5BB8EEE66BA6EE075B29
:1026200015EE901A53EC152BA1F15073B1EE046B1B
:1026300043EC152B37EE467BB4EEC57BF1EE10FA7A
:1026400000F3AB83B1EE455BB4EEC57BF1EE10FA5F
:1026500000F166810D9B002B03DB069A0E2A40F3E6
:102660004581079A002A4FD0029A012A40F38983B4
:102670000BF1FF33039A9A42C0F2C682D31ABBF120
:10268000000F0A9380F2EE83059BA3EB0B030893E4
:10269000C5E2102000F022FEE061002800F01D8459
:1026A000C0E90055C0E90255EBE5C1F1200106FA89
:1026B00001F107EE101A26E6012786E600F0A08257
:1026C000069BBE4A5B4203F00F011B1102EBC102E5
:1026D00092ED005B28EE055BB0EE457B00F0F383E6
:1026E000B74A0020022113F0010F05D0013138460E
:1026F00092ED006B27EE067B5B1002F10802F2D12F
:10270000002805FE077BF3E6039B00270A93059B41
:1027100007970893089A002A0BDD002E09DDB242C4
:1027200013460599A8BF3346C91AD21AF61A05915D
:102730000892039B5BB1079B1BB10A9B002B40F0E7
:1027400081822946039A204601F0E6FE05460121D2
:10275000204601F019FE0390BAF1000F40F05281BB
:10276000029B012B40F368810123334413F01F03C4
:1027700008D0C3F12002042A00F320820AD0C3F15A
:102780003C0300E01C23059A1E441A440592089A53
:102790001A440892059B002B05DD29461A4620465F
:1027A00001F02AFF0546002E05DD3246039920463A
:1027B00001F022FF0390029B022B099BD4BF00264D
:1027C0000126002B40F0B080BBF1000F28DC3EB3A7
:1027D000BBF1000F00F0F5816FEA0903464608934C
:1027E0000399204601F0B2FC1FB13946204601F0A2
:1027F000ADFC2946204601F0A9FC0022089B88F880
:1028000000200133049A13601B9B002B3FF455AD4D
:102810003046C3F800800FB0BDEC028BBDE8F08FEE
:10282000079B002B00F09D80089B002B00F321826A
:10283000BAF1000F40F0DA82BA4608F1FF3346469B
:102840005B440793009B03F00103CDE9083803992B
:102850002846FFF75DFC39468346284601F040FFD5
:1028600003998146524620460BF1300801F05AFF89
:10287000C3680146002B40F007820590284601F00E
:102880002FFF05990590204601F060FC029B059AF8
:10289000134340F02E82089B002B00F0ED82B9F12B
:1028A000000FC0F2E582079BB146B34209F8018BE5
:1028B00000F0C982294600230A22204601F06AFC62
:1028C0005745054639464FF000034FF00A022046AF
:1028D00000F0098201F05EFC5146074600230A22FF
:1028E000204601F057FC4E468246B0E7334BB9F123
:1028F000000F03EBC20393ED006B80F2C181BBF1CB
:10290000000F00F3BD81BBF1000F09D1B1EE047BD4
:1029100026EE077BB4EEC78BF1EE10FA00F23D8293
:1029200000231F46039357E70399284601F0D8FE7A
:102930000028BFF649AF069B29460A222046013BE4
:102940000693002301F026FC079B0546002B40F070
:102950009F820B9BDDF82CB0002B02DC002E7FF455
:1029600037AFC1460126DDF80CA007E02946002359
:102970000A22204601F00EFC013605465146284643
:10298000FFF7C6FB5E4500F1300309F8013BEDDBC4
:10299000BBF1000F4FF00006CCBFD9464FF0010944
:1029A000C144294601222046029301F025FE0399E5
:1029B000054601F095FE002807DCFDE1F016033422
:1029C000E0170334C14500F0F08119F8013CCB4613
:1029D00009F1FF39392BF5D0013389F80030069B16
:1029E00008930399204601F0B1FB002F00F0DA8133
:1029F0002EB1BE4203D03146204601F0A7FB464629
:102A0000D846F2E601465246204601F085FD029B7B
:102A10000390012B40F309814FF0000A039A1369D8
:102A200002EB8303186901F05BFCC0F120039CE614
:102A3000B0EE485B02214CE5009B002B7FF494AE86
:102A4000DDE90012C2F31303002B7FF48DAEBB4B04
:102A5000134023B1059B0136013305930123BAF1DD
:102A6000000F40F0FD819A467EE601230793069B06
:102A70004B4403F1010B0B93BBF1010FDC46B8BFD4
:102A80004FF0010CBCF1170FD4F81CE040F23B8270
:102A9000012204235B001146013203F1140060455A
:102AA000F8D9CEF80410EAE401230793B9F1000F36
:102AB00040F33781CC46CB46CDF82C90E2E700239B
:102AC0000793D4E700230793F0E7012924EE063BA0
:102AD00000F0DC81B2EE044B4144104627EE047B4B
:102AE000FDEEC76B16EE903AB8EEE65B303337EE8C
:102AF000457B00F8013B8142F0D1B6EE006B33EE2E
:102B0000065BB4EEC75BF1EE10FA00F16D8136EEB4
:102B1000436BB4EEC76BF1EE10FA69DC0D9B002B32
:102B2000FFF6F2AD069B0E2B3FF7EEAD069B464639
:102B300007EBC30797ED006B88EE067BBBF1010F37
:102B4000BDEEC77B17EE103AB8EEC75B03F130035A
:102B5000A5EE468B88F80030904600F05D81C2F10A
:102B60000102B2EE044B11E088EE067BBDEEC77B9E
:102B700017EE103AB8EEC75B3033A5EE468B08F877
:102B8000013B08EB02035B4500F0468128EE048B15
:102B9000B5EE408BF1EE10FAE6D1069B089328E6DD
:102BA000424500F01881114612F8013D392BF7D04B
:102BB0000133DBB24646137088461AE6C3F11C03A4
:102BC000E1E55B4603990522204601F0E3FA014660
:102BD0000390284601F084FD00287FF7FDAD4646AE
:102BE000069B08F101080133089331233370F7E5A0
:102BF0000A4611F8013D302BFAD046469046F8E5DA
:102C0000B0EE487B022173E4039A5E4403939A1A60
:102C1000059B08935B449244059300230A9301218A
:102C2000204601F0B1FB074674E5009B002B7FF4C2
:102C3000F3AEDDE90001C1F313030A46002B3FF4B4
:102C400006AFE9E61A463946204601F065FC07461C
:102C50002A462046394601F0ADFB29460546204666
:102C600001F074FA039B0A9A9B1A03933FF46FAD29
:102C700067E539461A46204601F0BEFC0746D7E50F
:102C800008F10102464657E72046CDF81480DDF8EA
:102C9000248001F05BFAB9F1000F059B08DB009A74
:102CA000029902F0010241EA090952EA090232D10D
:102CB000294601222046029301F09EFC0399054615
:102CC00001F00EFD0028029B40F3F780392B00F045
:102CD000C0800BF13103B3460BF8013B3E46069B27
:102CE000574608937DE601F055FA4E460746824660
:102CF000ADE5B9F1000FC0F20B81029B43EA09096F
:102D0000089B53EA090900F00381002A7FF7CBAD45
:102D10004346DDF82480392B00F09B80B346013315
:102D2000DAE74FF00109CB46FFF7A4BBC3F101037B
:102D3000002605930996FFF78EBB00BF0000F07FC9
:102D4000BBF1000F3FF464AC0B9B002B7FF782AC10
:102D5000B2EE044B0131069A06EE901A194627EEA0
:102D6000047B013A0892B8EEE65BB1EE0C6BA7EE7D
:102D7000056B16EE900A53EC162BA0F15073FFF77B
:102D8000D6BB0A9A62B303F23343059A1E44D318A2
:102D900008920593039B0A9341E7002346461F468A
:102DA00003931DE74646D84623E5069B0133089367
:102DB000312388F8003014E603D1029BDB073FF58E
:102DC00004AE19F8013CCB4609F1FF39302BF8D09D
:102DD000069B089305E6089B013308933123E9E637
:102DE0000C9BC3F13603D0E70A46DCE6796820463F
:102DF00001F06CF90646002868D03B6907F10C0128
:102E00000C3002339A0000F0F3F9314601222046DB
:102E100001F0F2FB824610E538EE088BB4EEC68B6B
:102E2000F1EE10FA0ADCB4EE468BF1EE10FA7FF404
:102E3000B4AE17EE103AD9077FF5AFAE069B424607
:102E4000B0460893AFE643463E46DDF82480574639
:102E5000A7E5B14639233E46574609F8013BB4E59C
:102E60009A46DBE5059B5E4408935B440593D6E6F2
:102E70004346DDF824802EE74346DDF82480392BD5
:102E8000E7D0B9F1000F3FF724AF24E7114634E64D
:102E9000394600230A22204601F07CF90B9B0746A5
:102EA000DDF82CB0002B3FF7BFAC002E3FF4BCACDC
:102EB000BBF1000F7FF490AC83E67FF40CAFDA0730
:102EC0007FF509AF02E70221FFF712BB0246194B5B
:102ED00040F2EF211848FDF781FC0246174BEF2125
:102EE0001548FDF77BFC0027E369204639465F6003
:102EF00001F0ECF8804690B90E4B002240F2AF1181
:102F00000D48FDF76BFC0021CEF80410FFF7B7BAAF
:102F1000002A4346DDF824803FF7CAAEDBE6E369CA
:102F20000122B94618604FF0FF3307929B460B937E
:102F3000FFF790BBA8B205347CB2053464B2053407
:102F400000293AD038B551F8043C0C1F0546002B37
:102F5000B8BFE41800F0F0FD224A1368D3B1A342D1
:102F600014D81A465B680BB1A342FAD911685018FD
:102F7000A04223D02ED821686018834211D063600C
:102F800054602846BDE8384000F0D8BD216860187C
:102F900083420DD0284663601460BDE8384000F0DD
:102FA000CDBD18685B680844C4E900035460E8E7D5
:102FB00018685B6808442060ECE7704720680144AB
:102FC000501811608342DCD1D3E900040144C2E906
:102FD0000014D6E70C2328462B60BDE8384000F0EB
:102FE000ADBD00BFECF6053488420ED98B18834284
:102FF0000BD900EB020C002A6ED0624613F801CD0B
:10300000994202F801CDF9D170470F2A0FD8034633
:1030100002F1FF3C002A5FD00CF1010C013B8C4413
:1030200011F8012B614503F8012FF9D1704740EAEF
:1030300001039B0751D1A2F1100301F1200C70B5DF
:1030400023F00F0501F1100E00F110041B09AC4430
:103050005EF8105C0EF1100E103444F8205C5EF83F
:103060001C5C44F81C5C5EF8185C44F8185C5EF864
:10307000145CE64544F8145CEAD1013312F00C0FFD
:1030800002F00F0C01EB031100EB031329D0ACF19C
:10309000040C1C1F8E462CF003064FEA9C0C1E44A9
:1030A0005EF8045B44F8045FB442F9D10CF101040A
:1030B00002F0030203EB840301EB840102F1FF3C05
:1030C0004AB10CF1010C013B8C4411F8012B614514
:1030D00003F8012FF9D170BD704702F1FF3C0346A0
:1030E0009AE76246EAE700BF2DE9F8434FF000098E
:1030F000074688461646D6E90154013D0FD4A389F8
:10310000012B08D9B4F90E3021463846013302D0DC
:10311000C04749EA0009013D68346B1CEFD13668AD
:10312000002EE8D14846BDE8F88300BF38B52F4BE4
:1031300005460C461B6813B11A6A002A45D0B4F93B
:103140000C30180716D52269F2B113F0010107D02F
:10315000616900204942A060A1613AB1002038BDF8
:10316000980758BF6169A160002AF7D1190638D4C1
:10317000104638BDD9062CD55A0712D4226943F01F
:103180000803A381002AE0D103F42071B1F5007F88
:10319000DBD02146284600F0D3FCB4F90C3022697C
:1031A000D3E7616B51B104F14402914204D0284647
:1031B000FFF7C6FEB4F90C300022626300212269D9
:1031C00023F02403C4E90021D9E71846FEF79AFA50
:1031D000B5E7092243F040032A60A3814FF0FF3096
:1031E00038BD43F04003A381F8E700BF58BA053467
:1031F000844641EA000313F0030349D1403A23D344
:103200000B6803604B6843608B688360CB68C36066
:103210000B6903614B6943618B698361CB69C3614E
:103220000B6A03624B6A43628B6A8362CB6AC36236
:103230000B6B03634B6B43638B6B8363CB6BC3631E
:1032400040304031403ADBD230320BD30B68036060
:103250004B6843608B688360CB68C360103010316B
:10326000103AF3D20C3205D351F8043B40F8043B3A
:10327000043AF9D2043208D0D2071CBF11F8013B3E
:1032800000F8013B01D30B8803806046704700BF04
:10329000082A13D38B07B1D010F00303AED0C3F1CB
:1032A0000403D21ADB071CBF11F8013B00F8013BF5
:1032B000A4D331F8023B20F8023B9FE7043AD9D36C
:1032C000013A11F8013B00F8013BF9D20B78037089
:1032D0004B7843708B78837060467047024B014691
:1032E0001868FEF795BE00BF58BA0534024B014678
:1032F0001868FFF725BE00BF58BA05340CB400B5F6
:1033000083B004AB53F8042B019300F06BFD03B0C2
:103310005DF804EB02B070470EB410B583B0074CF3
:10332000014605AB206853F8042B019300F05AFDC9
:1033300003B0BDE8104003B0704700BF58BA053471
:103340002DE9F041144641B30AB306460D4601F09B
:103350009BFC8442074602D8B4EB500F13D8214699
:103360003046FEF755FE804650B1BC422246294603
:1033700028BF3A46FFF73CFF29463046FFF7E0FDFD
:103380004046BDE8F081A8464046BDE8F081A04631
:10339000FFF7D6FD4046BDE8F0811146BDE8F0419B
:1033A000FEF736BE2DE9F84F92461F460A690C46D5
:1033B0008B680646DDF828909A42B8BF1A46CAF8CC
:1033C000002091F8433013B10132CAF8002022687E
:1033D00091065DD5DAF800300233CAF80030226871
:1033E00012F0060F11461BD1E168994266DD4FF0DD
:1033F000000804F1190B05E0E568DAF80030ED1A71
:1034000045450CDD01235A4639463046C847013050
:1034100008F10108F0D14FF0FF30BDE8F88F2168C6
:1034200094F84330003B18BF01238A060AD5E118FF
:103430005A1C30200233224481F8430094F845108E
:1034400082F8431004F1430239463046C847013040
:10345000E1D02368DAF8005003F006032169042B59
:10346000D4E902201BD08A4220DD4FF00008521A16
:1034700090441A34002501E0454517DA012322461D
:1034800039463046C847013005F10105F4D1C2E79D
:1034900012F0060F0DD0003B18BF0123D2E7401BEE
:1034A0008A4220EAE078E2DC0028E2DC0020BDE885
:1034B000F88FDAF80030E168994298DC1146AFE7FE
:1034C0002DE9F047174684B00A7E0C46064698461A
:1034D0000C9D01F1430C002A35D0A2F15803D9B25A
:1034E000202969D8202B67D8DFE813F0E6006600B2
:1034F000660066006600660066006600660066009C
:103500006600AC0070006600660066006600700031
:10351000660066006600660021008300C600660043
:103520006600B6006600830066006600EC002B684B
:103530002268181D6169286010061B6802D45206B3
:1035400000F1E08019600023E14623613B4603AAB5
:1035500021463046CDF80080FFF724FF013020D00F
:103560004A46236939463046C047013019D023689E
:10357000E0689B07DDF80C9018D5484516DD00255E
:1035800004F1190A04E0E068A0EB0903AB420DDD89
:103590000123524639463046C047013005F1010546
:1035A000F1D14FF0FF3004B0BDE8F0874845B8BF17
:1035B000484604B0BDE8F087012004F1420984F8D0
:1035C00042200023206184F84330BFE72A68236843
:1035D000111D1806296002D4590600F19580106863
:1035E000014600286268C0F2938054484FF00A0EEA
:1035F00015E020682B6810F0800F53F8041B02D1EF
:10360000400648BF89B26F2A4C482B6014BF4FF068
:103610000A0E4FF0080E0023626884F84330002A37
:10362000A26051DB236823F00403236000294BD1FF
:10363000002A7BD1E146BEF1080F56D0ACEB09035E
:10364000236183E72A6804F142090120111D1268F1
:10365000296084F84220B4E72B6800216268181DB5
:103660002860D3F80090484600F0F4FA002863D0B0
:10367000A0EB09006060A4E7236843F02003236007
:1036800078222F4884F845202A6813F0800F52F8DA
:10369000041B03D113F0400F18BF89B22A60DA0768
:1036A00002D543F02003236019B9236823F02003D7
:1036B00023604FF0100EAEE75823204884F84530C1
:1036C0002368E1E72368DBE77546E1460A46B1FB7C
:1036D000F5F305FB131AAA42194610F80A3009F847
:1036E000013DF3D2BEF1080FA8D12368DD07A5D5AF
:1036F000626823699A42A1DC302309F1FF3989F815
:1037000000309BE719801EE7B2F90010084668E711
:103710002D20002AA26084F8430002DB23F004037A
:1037200023600A2549420548AE46CEE7037804F1F6
:10373000420984F842307EE7606842E7BCB2053453
:10374000D0B205348C461146BCF18E0F00F2918048
:10375000DFE81CF03A013801360134013201300152
:103760002E012C012A012801260124012201200119
:103770001E018F001C011A0118011601140112010B
:1037800010010E010C010A010801060104010201E9
:103790000001FE00FC00FA00F800F600F4008F00C3
:1037A0008F008F008F008F008F008F008F00F2003E
:1037B000F0008F008F008F008F008F008F008F0030
:1037C0008F008F008F008F008F008F00EE00EC00C5
:1037D000EA00E8008F008F008F00E6008F008F0066
:1037E0008F00E4008F008F00E2008F008F00E00068
:1037F0008F008F008F008F008F008F008F008F0051
:103800008F008F00DE008F00DC00DA00D8008F0010
:103810008F00D6008F008F008F008F008F008F00E9
:103820008F008F00D400D200D000CE00CC00CA00A0
:103830008F00C800C600C400C200C000BE00BC00AB
:10384000BA00B800B600B400B200B0008F00AE00FD
:10385000AC00AA00A8008F008F008F008F008F009F
:10386000A6008F008F008F00A400A200A0009E0081
:103870009C00002B14BF1A460246604608B501F0B2
:1038800001FA524B002808BF184608BD504870473F
:1038900050487047504870475048704750487047EC
:1038A00050487047504870475048704750487047DC
:1038B00050487047504870475048704750487047CC
:1038C00050487047504870475048704750487047BC
:1038D00050487047504870475048704750487047AC
:1038E000504870475048704750487047504870479C
:1038F000504870475048704750487047504870478C
:10390000504870475048704750487047504870477B
:10391000504870475048704750487047504870476B
:10392000504870475048704750487047504870475B
:10393000504870475048704750487047504870474B
:10394000504870475048704750487047504870473B
:10395000504870475048704750487047504870472B
:10396000504870475048704750487047504870471B
:10397000504870475048704750487047504870470B
:1039800050487047504870475048704750487047FB
:1039900050487047504870475048704750487047EB
:1039A00050487047504870475048704750487047DB
:1039B00050487047504870475048704750487047CB
:1039C000504870475048704750487047F8B1053428
:1039D00058B9053440B905342CB9053490B90534CB
:1039E00088B60534C0B50534F8B8053410B90534C7
:1039F000FCB40534BCB8053430B70534B8B9053467
:103A0000C4B305348CB3053494B4053494B505348B
:103A100084B40534CCB90534D8B40534ACB6053417
:103A2000D4B80534A4B8053474B805345CB805348A
:103A30003CB805341CB80534ECB70534C8B70534B8
:103A400088B805346CB90534B0B7053494B705347B
:103A500080B7053464B7053458B7053444B7053426
:103A600020B7053408B70534F4B60534DCB60534A0
:103A7000E4B70534CCB60534C4B60534A0B6053475
:103A800074B6053458B6053444B6053414B6053456
:103A900008B60534F8B50534E0B50534D0B50534BD
:103AA000A8B5053484B5053474B505345CB5053462
:103AB0003CB505341CB50534C4B40534B4B4053480
:103AC00074B4053464B4053450B4053444B40534D6
:103AD0002CB4053420B405340CB40534F8B30534E3
:103AE000E4B30534B8B30534A8B3053478B305346A
:103AF00064B3053448B305343CB3053424B305340A
:103B000014B30534F8B20534ECB20534E4B205342C
:103B1000034A0023014610681A46FFF713BE00BF90
:103B200058BA0534034A0023014610681A46FFF7C5
:103B300009BE00BF58BA0534704700BF704700BFC8
:103B4000B1F90C3070B50C46990796B007D504F161
:103B5000470301222360C4E9043216B070BDB4F9F2
:103B60000E10054600292ADB6A4601F0A5FB002855
:103B700023DB4FF480612846019EFEF749FA0028B6
:103B800031D0A38906F470464FF48062206043F080
:103B90008003B6F5005F2061A3816261DDD1B4F9D5
:103BA0000E10284600F0C6F80028D6D0A38923F0CE
:103BB000030343F00103A381CFE7B4F90C3013F002
:103BC000800F284614BF40254FF480652946FEF734
:103BD0001FFA40B1A389206043F08003C4E90405C3
:103BE000A38116B070BDB4F90C309A05B5D423F09A
:103BF000030304F14702012143F002032260C4E9F8
:103C00000421A381A9E700BF70B50C46B1F90E10DD
:103C100096B0154600291E460FDB6A4601F04CFBA4
:103C200000280ADB019B4FF4806203F47043A3F584
:103C30000053B3FA83F35B0907E0A289002312F073
:103C4000800F14BF40224FF48062002033602A604E
:103C500016B070BD5FFA81FC810744D00346511E47
:103C600022B909E09A0709D0013905D31846013372
:103C700002786245F6D17047002070471846032944
:103C80000CD80029F8D00346014401E08B42F3D060
:103C9000184613F8012B6245F8D1704710B50CEBAC
:103CA0000C24024604EB044402E00439032915D92C
:103CB000104652F8043B6340A3F1013E2EEA030391
:103CC00013F0803FF1D00346014401E08B4208D05D
:103CD000184613F8012B6245F8D110BD1046002993
:103CE000F1D1002010BD1146C9E700BF0EB400B5E8
:103CF00082B0816803AB53F8042B019300F072F893
:103D000002B05DF804EB03B0704700BF0FB4084980
:103D100000B583B0086804AB816853F8042B0193A5
:103D200000F060F803B05DF804EB04B0704700BF2A
:103D300058BA053438B50022064D044608462A60B4
:103D400006F09CF9431C00D038BD2B68002BFBD03B
:103D5000236038BDF0F605349368013B002B936077
:103D600011DA10B49469A34209DB0A2907D0136859
:103D7000581C1060084619705DF8044B70475DF8D8
:103D8000044B00F057B91368581C106008461970AE
:103D9000704700BF9BB1F8B5134406460F46541E4A
:103DA0005D1E01E0AC4208D03A4614F8011F3046CF
:103DB000FFF7D2FF431CF5D1F8BD0020F8BD00206D
:103DC000704700BF936810B514461BB9184600230E
:103DD000636010BD00F06CFF0023A36000236360EC
:103DE00010BD00BF2DE9F04F8B469FB016461C4614
:103DF000824618B1036A002B00F00381BBF80C3037
:103E0000180740F19880DBF81030002B00F0938009
:103E100000237D4F4FF0010805940B9343F22003DC
:103E2000ADF83130337835464BB1252B07D02A46D3
:103E300015F8013F0BB1252BF9D1A91B60D1002B3F
:103E400071D000234FF0FF320135069309938DF8AE
:103E50005B301C93CDE9072305E0C01B254608FA1B
:103E600000F0034306932C460522384614F8011B44
:103E7000FFF7F0FE069B26460028EED1D90602D5B4
:103E800020228DF85B201A0702D52B228DF85B20AB
:103E900029782A2959D1059A111D1268002A0591FD
:103EA000C0F28980099269782E2962D0574C03228A
:103EB0002046FFF7CFFE30B1001B4022069B0136A3
:103EC00082401343069316F8011B062250488DF8D2
:103ED0003010FFF7BFFE002873D04E4B002B5AD096
:103EE00005AC4D4B5A4606A950460094FDF720FEFE
:103EF0008146B9F1FF3F16D00B9B4B440B9391E7E2
:103F0000013ECDF80890039589467418354616464B
:103F100001E0A54246D05A4615F8011F5046FFF76A
:103F20001BFF0130F5D1BBF80C305B060AD40B98AF
:103F30001FB0BDE8F08F59465046FFF7F7F800284C
:103F40003FF466AF4FF0FF30F2E7A1F13002092AEB
:103F500055D8099B00E00134217803EB830302EB81
:103F60004303A1F13002092AF5D92E2926460993E7
:103F70009CD171782A292ED1059BB21C191D1B6872
:103F8000002B07930591B8BF4FF0FF33B178164669
:103F9000B8BF07938AE7059B073323F0070308336D
:103FA0000593A9E749460B9BDDF808900B44039D58
:103FB0000B93737843E7524243F00203099206934E
:103FC00071E705A8144B5A4606A900905046FFF722
:103FD00077FA81468DE7A1F1300200230136092AE4
:103FE00007933FF663AF03EB830316F8011F02EB61
:103FF0004303A1F13002092AF5D9079356E72E466B
:1040000052E7FDF77FFBF9E62CB2053434B20534F4
:1040100038B20534311B0034953D003410B4044CE3
:1040200013460A46014620685DF8044BFFF7DABEE6
:1040300058BA0534F8B50D460646144610B1036A61
:10404000002B37D0A269A389A2601A0719D523696A
:10405000BBB12268EDB26169D31A2F46994220DDC7
:104060000133A1680139A160511C2160157062699A
:104070009A420DD0A389DB0701D50A2D08D0384616
:10408000F8BD21463046FFF751F838B92369E0E71B
:1040900021463046FDF748FC0028F0D04FF0FF37AE
:1040A000EDE721463046FDF73FFC0028F6D12268B7
:1040B0000123D6E7FDF726FBC4E700BF024B0A4603
:1040C00001461868FFF7B6BF58BA053470B5C6691F
:1040D00005460C465EB1F368A3B153F82400E8B17D
:1040E000026843F824200023C0E9033370BD102088
:1040F000FFF7F4F80646E861E8B10023C0E90033B1
:10410000C0E9023321220421284601F093F8EB692B
:10411000F060DB68002BE0D1002070BD0121284653
:1041200001FA04F56A1D920001F084F80028F3D02A
:10413000C0E90145D7E70246024B6B210248FCF774
:104140004DFB00BF64B20534E4B9053470B5C669EF
:1041500005460C464EB13CB1EB696268DB6853F82A
:104160002210216043F8224070BD1020FFF7B6F8FE
:10417000E86120B1C0E90066C0E90266EBE70246EB
:10418000024B8F210248FCF729FB00BF64B20534C3
:10419000E4B905342DE9F04107460E461C460D6989
:1041A00001F1140E0020DEF8001001308BB28542C0
:1041B0004FEA114102FB03434FEA134C9BB202FB4F
:1041C00001CC03EB0C434FEA1C444EF8043BEADC01
:1041D0003CB1B368AB4207DD06EB850301355C619A
:1041E00035613046BDE8F081716838460131FFF72E
:1041F0006DFF804690B1326906F10C010C3002323D
:104200009200FEF7F5FF314646463846FFF79EFF1F
:1042100006EB850301355C613561E2E70246024B3E
:10422000BA210248FCF7DAFAA8B20534E4B9053439
:104230002DE9F8431E4617460833264A0C46092E38
:1042400082FB03124FEAE3730546C3EB620338DDDA
:104250004FF0010C00214FEA4C0C01316345FADCB0
:104260002846FFF733FF014668B3089B092F4361D7
:104270004FF00103036112DC0A340927BE420BDD53
:10428000F61B264414F8013B0A222846303BFFF770
:1042900081FFB4420146F5D10846BDE8F88304F138
:1042A00009093C44C84618F8013B0A222846303B1D
:1042B000FFF770FFA0450146F5D1A7F108044C4473
:1042C000DCE70021CCE70246034BD3210348FCF78F
:1042D00085FA00BF398EE338A8B20534E4B9053455
:1042E000B0F5803F034618D203041020B3F1807F5D
:1042F00001D208301B02B3F1805F01D204301B01F0
:10430000B3F1804F03D3002B06DB013070479B00D5
:1043100005D45B0005D4202070470020E6E702307A
:1043200070470330704700BF0368014613F007026F
:1043300007D0DA071FD4980721D55B0801200B604E
:10434000704798B2A0B11046DAB20AB908301B0A19
:104350001A0701D104301B099A0701D102309B08CA
:10436000DA0703D45B0800F1010006D00B60704748
:104370001B0C1020E8E700207047202070479B08A6
:1043800002200B60704700BF10B50C460121FFF7FB
:104390009DFE024618B10123C0E9043410BD034B51
:1043A00040F245110248FCF719FA00BFA8B20534E3
:1043B000E4B905342DE9F04FD1F8108085B01569C6
:1043C0000E469246A84505DB2A46534645468A4690
:1043D00090461E4605EB0804DAE90113A342B8BF74
:1043E0000131FFF773FE002800F08B8000F1140705
:1043F00007EB840E774505D23B46002243F8042B99
:104400009E45FBD814360AF1140906EB880809EB1F
:104410008505464568D2A5EB0A030AF1150ACDF8D1
:1044200008E0AE46153B039423F0030304335545DF
:104430002CBF9B464FF0040B824605E0090C2CD1A3
:10444000B04507F104074CD956F8041B8DB2002D76
:10445000F4D0CC463C46002301965CF8040B21685E
:1044600086B2E6458AB24FEA104005FB06224FEAC3
:1044700011411A4405FB001101EB124192B24FEABF
:10448000114342EA014244F8042BE6D8019E47F862
:104490000B3056F8041C090CD2D03B680022484669
:1044A0003D461C46944602889BB201FB02C202EBC9
:1044B000144243EA024345F8043B50F8043B2C689D
:1044C0004FEA134C7045A3B201FB0C3303EB1243CC
:1044D0004FEA134CE7D3B04547F80B3007F1040718
:1044E000B2D85046DDE902E4002C02DC05E0013CD4
:1044F00003D05EF8043D002BF9D0046105B0BDE89F
:10450000F08F0246024B4FF4B1710248FCF766F996
:10451000A8B20534E4B9053412F003032DE9F041E3
:10452000144682B007462DD10E46A4101CD0FA695D
:104530008AB39568002D39D0E3074FF0000806D400
:10454000641011D0286898B10546E307F8D53146C4
:104550002A463846FFF72EFF0346314638461E46A8
:10456000FFF7F4FD6410EDD1304602B0BDE8F081F4
:104570002A4629463846FFF71DFF28600546C0F841
:104580000080E2E7013B184A52F823200023FFF79E
:1045900001FE0646C9E71020FEF7A0FE0246F861BC
:1045A000E0B10023C0E90033C0E9023301213846FD
:1045B0000192FFF78BFD019A054640B1012340F2BD
:1045C0007121C0E90431002390600360B4E7024622
:1045D000064B40F245110648FCF700F9054B40F246
:1045E000B3110348FCF7FAF8E0160334A8B2053417
:1045F000E4B9053464B205342DE9F0470D4691461F
:1046000007464FEA621A2B69496803EB6218AB68E8
:1046100008F101049C4203DD5B0001319C42FBDC9C
:104620003846FFF753FD064600284DD0BAF1000F7B
:1046300000F114000EDD0AF10502034600214FEAE5
:10464000820C06EB820243F8041B9342FBD1ACF1CF
:104650001403184405F11403296919F01F0903EB29
:10466000810129D0C9F1200E84464FF0000A1A6852
:1046700002FA09F242EA0A024CF8042B53F8042B1E
:10468000994222FA0EFAF2D84B1B05F11502153B9E
:1046900023F003030433914238BF042340F803A0FE
:1046A000BAF1000F00D14446384629463461FFF77D
:1046B0004DFD3046BDE8F087043853F8042B99428D
:1046C00040F8042FF9D8EEE70246034B4FF4EF71A0
:1046D0000248FCF783F800BFA8B20534E4B90534FA
:1046E00084460B690069C01A16D10CF1140C143100
:1046F0000CEB830201EB830310B401E0944508D274
:1047000052F8044D53F8041D8C42F7D005D24FF0F7
:10471000FF305DF8044B7047704701205DF8044B93
:10472000704700BF2DE9F04F15460A6983B08846EF
:104730002B69D21A002A40F08B8001F1140605F192
:10474000140101EB830106EB830302E09E4280F03B
:10475000828053F8044D51F8042D9442F6D078D35A
:104760002B460024454698466968FFF7AFFC0028B1
:1047700000F08C802E6905F1140B08F1140ED8F8A6
:10478000103000F1140A05F110020EEB83094FF00E
:10479000000C0BEB86015746C460CDF804B05EF800
:1047A000044B52F8045F1FFA84FBF145ABB24FEAA9
:1047B0001444A3EB0B03C4EB1544634404EB234400
:1047C0009BB24FEA244C43EA044347F8043BE6D843
:1047D000A9EB080408F11508DDF804B0C145A4F1FF
:1047E000150434BF4FF000084FF00108A408B8F1D9
:1047F000000F04F101024FEA820208BF04220BEB12
:1048000002055244A94231D917462C4654F8043BBC
:104810001FFA83F8A1424FEA134E6344C4449BB28B
:104820000EEB2C4C43EA0C434FEA2C4C47F8043B6C
:10483000ECD80139491B21F003010A4423B952F88D
:10484000043D013E002BFAD0066103B0BDE8F08FB5
:1048500086DA012488E70021FFF738FC78B10122CD
:104860000023C0E9042303B0BDE8F08FB8F1000FC6
:104870004FEA840408BF00240AEB0402DEE7024684
:10488000064B40F237210648FBF7A8FF0246034BD0
:1048900040F245210248FBF7A1FF00BFA8B2053452
:1048A000E4B9053482B0174B8DED000B019A13402B
:1048B000A3F15073002B06DD00221946104641EC8F
:1048C000100B02B070475B42B3F1A07F4FEA235157
:1048D00009DA4FF4002300220B411046194641EC3F
:1048E000100B02B0704714391E2907DD0122002386
:1048F0001046194641EC100B02B070474FF00042D1
:10490000CA40F4E70000F07FF8B5046900F114062E
:1049100006EB840454F8045C271F2846FFF7E0FCEC
:10492000C0F120030A280B6034DDBE42A0F10B0366
:104930001AD254F8080C2BB3C3F120079D40A4F100
:10494000080120FA07F298408E4245EA020545F038
:104950007F5343F4401319D254F80C1CF940084318
:10496000024643EC102BF8BD0B280AD005FA03F1E0
:10497000002041F07F53024643F4401343EC102BD8
:10498000F8BD002045F07F5343F44013024643EC4A
:10499000102BF8BDC0F10B0CBE4225FA0CF141F012
:1049A0007F5343F4401308D30021153005FA00F07B
:1049B0000843024643EC102BF8BD54F8081C21FABA
:1049C0000CF1F2E72DE9F0430E4683B001211546C4
:1049D00059EC108BFFF77AFB0446002846D0C9F348
:1049E0000A57C9F313030FB143F480130193B8F1CD
:1049F000000313D101A8FFF797FC019B012220308F
:104A0000636122610FB3A7F233470744C0F1350059
:104A100037602860204603B0BDE8F0836846009305
:104A2000FFF782FC019BF8B1C0F12002009903FA64
:104A300002F2C3400A430193002B6261A3610CBFE1
:104A4000012202222261002FDDD104EB8203A0F2B9
:104A5000324030601869FFF743FCC0EB4210286019
:104A6000204603B0BDE8F083009AE5E70246034B19
:104A700040F20F310248FBF7B1FE00BFA8B2053487
:104A8000E4B90534F0B583B00E4607466946FFF732
:104A90003BFF01A93046B0EE407B55EC104BFFF7D1
:104AA00033FF33693A69D21ADDE900315B1A03EB4F
:104AB0004213002B09DD17EE902A02EB035545EC5B
:104AC000174B87EE000B03B0F0BD10EE902AC3EB3E
:104AD000033351EC100B02EB035141EC100B87EE4A
:104AE000000B03B0F0BD00BF172808DDB7EE000BC8
:104AF000B2EE047B013820EE070BFBD17047034B6D
:104B000003EBC00393ED040B704700BFE0160334C2
:104B1000013902F114034FEA611C116903EB8101B1
:104B20000CF1010C8B4200EB8C0C16D210B5A0F1ED
:104B3000040E53F8044B99424EF8044FF9D88B1ADF
:104B4000153B23F0030304331844844504D90023A0
:104B500040F8043B8445FBD810BD844505D90023AB
:104B600040F8043B8445FBD87047704703694A11FD
:104B70001430934209DA00EB830302E053F8042D6A
:104B8000AAB98342FAD80020704700EB8203F8DD0F
:104B900011F01F01F5D010B450F8224024FA01F2B0
:104BA0008A40944209D001205DF8044B70470120EF
:104BB000704753F8042D002AF5D18342F9D800201C
:104BC0005DF8044B704700BF38B50022064D04461F
:104BD00008462A6001F03CFA431C00D038BD2B681F
:104BE000002BFBD0236038BDF0F6053410B50C4621
:104BF000B1F90E1000F04AFB002803DB636D03449B
:104C0000636510BDA38923F48053A38110BD00BF49
:104C1000002070472DE9F0410C46B1F90C101F46F9
:104C20000546CB0516460BD421F480513B4632464F
:104C30002846A181B4F90E10BDE8F04100F068BB30
:104C4000B4F90E100223002200F04CFBB4F90C1052
:104C5000EAE700BF10B50C46B1F90E1000F042FBB8
:104C6000421CB4F90C3004D043F480536065A38136
:104C700010BD23F48053A38110BD00BFB1F90E1005
:104C800000F0C6BA0020704751F8043C002BA3F195
:104C9000040000DB70470B5818447047F030704731
:104CA00000487047A4BB053400487047A4BB0534D6
:104CB0009368002B00F0F980B1F90CC01CF0080FCC
:104CC0002DE9F04F904683B081460C4631D00B69F8
:104CD0007BB31CF00207D8F8006038D00027D4F866
:104CE00028B0216ADFF8C4A23D4655452B463A4616
:104CF000484628BF5346C5B1D847002840F3CB806B
:104D0000D8F8083007442D1A1B1AC8F80830002BB1
:104D100000F0B78055452B46D4F828B03A46216AB2
:104D200028BF53464846002DE6D1D6E9007508361F
:104D3000DBE721464846FEF7F9F9002840F0B0804D
:104D4000B4F90CC0D8F800601CF00207C6D11CF002
:104D5000010A64D123685746A16818468B46002F84
:104D600059D01CF4007F00F0B680B9420A4600F228
:104D7000E2801CF4906F30D021695D1A636913EBF7
:104D8000430348BF01334FEA630B6B1C3B445A4655
:104D90005B4501D99B461A461CF4806F00F0EA80FF
:104DA00011464846FDF734F9002800F0F9802A46FC
:104DB00021690090FEF71CFAA289009B22F4906200
:104DC00042F08002A2815819C4F814B0ABEB05057B
:104DD0003A46BB462361A560206051460092FEF72B
:104DE00003F9A16823683D46009AA1EB0B01002757
:104DF0001A44A1602260D8F80830AA445B1BC8F8A6
:104E00000830002B3DD02368A168B4F90CC01846C7
:104E10008B46002FA5D1D6E900A708369DE7384676
:104E2000BB463D460097002D41D0002846D0009A51
:104E3000A168AA426369206828BF2A4603EB010AD9
:104E40002169884202D9524500F38580934275DC7E
:104E50005A46216A4846A76AB847B0F1000A1ADDE7
:104E6000009BB3EB0A0300930FD00120D8F8083061
:104E7000D344A5EB0A05A3EB0A03C8F80830002BBE
:104E8000D1D1002003B0BDE8F08F21464846FCF7A1
:104E90004BFD0028EAD0B4F90C3043F04003A38165
:104EA0004FF0FF3003B0BDE8F08F00207047756809
:104EB00033460836002DFAD0D3F800B02A460A212E
:104EC0005846FEF7C7FE002867D00130A0EB0B0361
:104ED0001A460093ACE722699A4214D36269BA4237
:104EE00011D86FF00043A56A216A4846BB4228BF2B
:104EF0003B4693FBF2F302FB03F35246A847051E21
:104F0000C9DD7F1B77E7B942184628BF39460D46F1
:104F100051462A46FEF768F8A1682368491B2B44CE
:104F2000A16023600029ECD121464846FCF7FCFC37
:104F30000028E6D0AFE7BB463A464EE75946019215
:104F4000FEF752F8019AA36892469B1AA360236861
:104F50001344236084E759465246FEF745F8236818
:104F60002146484653442360FCF7DEFC00283FF40A
:104F700077AF90E74846FEF7E3F9034600287FF451
:104F800022AF21694846FDF7DBFFB4F90C300C2253
:104F900023F08003C9F800207FE76A1C009247E7EE
:104FA0000C22B4F90C30C9F8002076E700FCFF7F32
:104FB00038B5C46B0CB1002038BD05468021FDF723
:104FC00027F80246E86330B1031F7C3243F8044FF0
:104FD0009342FBD1EFE74FF0FF3038BD1F2930B5CA
:104FE000054683B008D8C36B0C4653B153F8240070
:104FF00043F8242003B030BD162303604FF0FF3088
:10500000F8E780210192FDF703F8019A0346E8636F
:105010000028F3D0011F00F17C05002041F8040FA7
:10502000A942FBD1E2E700BF1F2938B505461ED8CB
:10503000C26B0C466AB152F8213053B1012B06D035
:10504000591C10D00021204642F824109847002017
:1050500038BD284600F088F9224601462846BDE8BA
:10506000384000F06BB9162301202B6038BD1623A1
:105070004FF0FF302B6038BD1F292AD838B5C36BDD
:105080000C460546A3B153F8242003EB84034AB130
:10509000511C0BD0012A07D0002520461D609047E7
:1050A000284638BD012038BD032038BD022038BD58
:1050B0008021FCF7ADFF0346E86338B1021F0021F1
:1050C0007C3042F8041F8242FBD1DCE74FF0FF3016
:1050D00038BD4FF0FF30704738B51F28124B1D68A0
:1050E0001DD8EA6B044662B152F820304BB1012B57
:1050F00005D0591C0FD0002142F8201098470020FD
:1051000038BD284600F030F9224601462846BDE861
:10511000384000F013B9162301202B6038BD162348
:105120004FF0FF302B6038BD58BA0534114B1F28A3
:1051300070B51E6808D8F36B04460D464BB153F8A2
:10514000240043F8245070BD162333604FF0FF3025
:1051500070BD80213046FCF75BFF0346F0630028FA
:10516000F4D0021F00217C3042F8041F8242FBD1A0
:10517000E5E700BF58BA053438B50B4B1D68EC6B3A
:105180000CB1002038BD80212846FCF741FFE863C0
:1051900038B1031F00F17C0243F8044F9342FBD166
:1051A000EFE74FF0FF3038BD58BA053438B51F2847
:1051B000164B1D6826D80446E86BA0B150F8242091
:1051C00000EB84034AB1511C0BD0012A07D0002503
:1051D00020461D609047284638BD012038BD032079
:1051E00038BD022038BD80212846FCF711FFE86356
:1051F00040B1031F00F17C01002243F8042F8B42D1
:10520000FBD1DBE74FF0FF3038BD00BF58BA0534A3
:1052100038B50022064D044608462A6004F026FFF1
:10522000431C00D038BD2B68002BFBD0236038BD59
:10523000F0F6053470B5A1FB025454B92946FCF7C9
:10524000E7FE064618B12A462146FCF78BFA30469F
:1052500070BD0C2200260260F9E700BF10B4034CB9
:10526000D4F8E040A4465DF8044B6047B4BA053476
:10527000034649B1FF2A02D801200A7070478A22EA
:105280004FF0FF301A6070470846704738B50C463B
:1052900084461146074D1A460023204664462B607B
:1052A00004F0D6FE431C00D038BD2B68002BFBD089
:1052B000236038BDF0F6053470B50C460346084D42
:1052C0000026204611461C462E6004F0D2FE431CE8
:1052D00000D070BD2B68002BFBD0236070BD00BFD9
:1052E000F0F6053438B50C4684461146074D1A468B
:1052F0000023204664462B6004F0C2FE431C00D00D
:1053000038BD2B68002BFBD0236038BDF0F6053488
:1053100038B50C4684461146074D1A4600232046F0
:1053200064462B6004F04EFE431C00D038BD2B6851
:10533000002BFBD0236038BDF0F6053470B50C4669
:105340000346084D0026204611461C462E6004F0F8
:1053500071FE431C00D070BD2B68002BFBD0236076
:1053600070BD00BFF0F6053404F062BE10B4034C0B
:10537000D4F8E440A4465DF8044B6047B4BA053461
:1053800082B049B15AB16BB113780B601278101E1C
:1053900018BF012002B0704701A9002AF3D11046BE
:1053A00002B070476FF00100F4E700BF000000009A
:1053B0002DE9F04F55EC104B2E0D40F2FD7011EE23
:1053C00090CA2A4606F1FF3E214611EE103A4FEAF6
:1053D0001C5786452DED028B8BB000F2C580C7F3BC
:1053E0000A0EAEF2BE307F2800F22E810020D24C91
:1053F000BFEE006BD14B1444C4F3463503EB4516A6
:1054000096ED128B96ED187B96ED160BCC4E264042
:10541000241505EE904A951B0C1EB8EEE55B93ED46
:10542000002B93ED023B93ED044BA5EE020BA5EE92
:10543000037B45EC154BA5EE086B26EE044B36EED0
:10544000005B30EE453B26EE040B33EE063B37EEB9
:10545000037BB0EE403B35EE002B26EE008B96EE44
:10546000043B35EE425B93ED0C4B35EE005B37EEC3
:10547000037B93ED103B37EE057B93ED0A5BA6EEC5
:10548000045B93ED0E4BA6EE034B93ED083BA0EEB1
:10549000045B93ED064B6FF47273A6EE034BA0EE24
:1054A000054BA8EE047B32EE076B21EE068B32EE45
:1054B000462B32EE072B18EE902AB0EE487BC2F353
:1054C0000A5691EE067BF3183E2BA1EE027B00F20A
:1054D000EC809C4B93ED021B93ED004B93ED046B22
:1054E000B0EE410B93ED062BA8EE040B93ED0A3BB7
:1054F00093ED085B93ED0E4B30EE411B10EE105A0E
:1055000005F07F02A1EE068B9218401903EBC20151
:105510000F3293ED0C6B53F83240A1EE028B37EE55
:10552000087BA7EE035BA7EE046B27EE073B91ED2C
:105530001C4B03EBC20137EE047B4F6823EE034B99
:10554000002107EB40330A19A3EE057BA4EE067B8E
:10555000002E00F0B98043EC102BA7EE000B0BB02F
:10556000BDEC028BBDE8F08FD8186FF001096FF425
:1055700000184CEB0C0A10F1FF3B4AF1FF3ED945F5
:1055800078EB0E0EC0F0588114EB040E45EB050AC3
:105590001EF1FF3B6AF10000D94578EB0000C0F036
:1055A0002381002DC7F30A0E80F2858140F2FE3080
:1055B000864540F3F98040F23340864500F382810E
:1055C000A0EB0E004FF0FF390190203802900198B7
:1055D00009FA00F8C0F1200A029823EA080B0390A8
:1055E00009FA00F029FA0AF948EA000848EA090825
:1055F0002CEA08085BEA080840F0D68001980CFA0B
:105600000AFAC340039843EA0A032CFA00F0034362
:1056100003F001039804AEF2BE3322F000427F2B68
:1056200022D8C6F30A06002E7FF4E1AE9FED3E7B42
:1056300045EC164B26EE077B55EC174B25F0004248
:105640002146A2F15072D2E6D8186FF0010B6FF428
:1056500000164CEB0C0810F1FF3A48F1FF39D34526
:1056600076EB0906C0F00F81374B9A4208BF00293C
:1056700000F0B78040F2BD339E4549D9324B012935
:105680004FF0000072EB030334BF01230023B7F592
:10569000006F2CBF00270127BB420ED10BB0BDEC21
:1056A000028BBDE8F04F00F06DBC002BC0F285808E
:1056B000B6F5816F2AD9002AF0DB0BB0BDEC028B66
:1056C000BDE8F04F00F070BC8D4280F2A18003F184
:1056D0007F511046B7EE003B01F5001141EC150B70
:1056E00027EE057B35EE076BB0EEC64BB4EEC34B31
:1056F000F1EE10FA2AD49FED0E0B26EE000B0BB044
:10570000BDEC028BBDE8F04F00F07CBC0026E0E66B
:1057100000200D4BB7EE000B8842934134BF31EEB1
:10572000000B30EE410B1AE7000000000000304390
:105730000000000000001000AB6A19C08021033493
:105740000000F0FF101903340000F03FB5EEC06B0D
:10575000BFEE004B35EE465BF1EE10FA35EE075B1F
:1057600058BFB0EE434B36EE043B34EE437B37EE8E
:10577000067B37EE057B37EE037B37EE446BB5EEE9
:10578000406BF1EE10FA04D1324601F0004343ECD5
:10579000162B9FED715B8DED065B9DED067B27EE75
:1057A000057B8DED087BA6E745EC104B0BB0BDECFF
:1057B000028BBDE8F04F00F017BCB7EE000B38EEDF
:1057C000000B00283FF4CBAEB1EE400BC7E6491802
:1057D00082F400224FF00000654B52418842934111
:1057E00064D3B7EE000BBAE6002D20EE000B6BDBA6
:1057F00000205EEA0A0A40F09180BCF1000FBFF67B
:10580000AEAE0BB0BDEC028BBDE8F04F00F0D4BBE8
:1058100003F14041104601F5700141EC100BA7EE79
:10582000000B9FED4F6B20EE060B0BB0BDEC028B17
:10583000BDE8F04F00F0EEBB50EA0A03C7D02119D3
:105840004C4E45EB0503012973EB06061A462DD293
:105850000AF5001A50EA0A0A14BF0120002025D1D7
:10586000454CA34208BF8142BBD0434B6FEA0C0CAE
:105870009A424FEADC7C34BF00230123634567D0A2
:105880009FED390B6BE650EA0806A0D000263B4F8F
:10589000BD4208BFB4424ED1DB188CF4002C344B0F
:1058A0004CEB0C0C864273EB0C039AD245EC174B75
:1058B00037EE010B53E6AEF2BE337F2B3FF6DAAE86
:1058C0000020B0E60020A6E6C7F30A07A7F2FF32E1
:1058D000342A8DD840F233424FF0FF30D21BA2F170
:1058E000200500FA02F1C2F1200600FA05F723EACA
:1058F0000104F040394301432CEA01010C437FF4D9
:1059000077AF23FA02F20CFA06F62CFA05F53243C9
:105910002A4312F0010217D110466AE7BCF1000FCA
:10592000BFF61DAEB7EE006B86EE007B8DED047BFF
:105930009DED040B13E618F5001F08BFB042B5D16A
:10594000491845EB020290E7B1EE400B012050E709
:1059500021EE010B03E600BF000000000000100074
:10596000000000000000007F0000000000000000B8
:105970000000F0FF0000E0FF0000E07F0000F03FCB
:1059800010EE103A40F22A41B7EEC02AC3F30A5291
:105990008A4232D82E4BB7EE000B93ED487B93ED45
:1059A0004A1B93ED4C4BB0EE473B93ED4E6BA1EE93
:1059B000023B93ED505B30B433EE477B13EE102A7D
:1059C00002F01F0191EE027B03EBC10053F831405E
:1059D00000234568181905EBC23130BCA4EE076BF3
:1059E000A5EE070B27EE077BA6EE070B41EC170B86
:1059F00020EE070BB7EEC00B704713F5000F20D059
:105A0000B2F5FF6F1AD2DFED137AB4EEE70AF1EECA
:105A100010FA10DCDFED107AB4EEE70AF1EE10FABE
:105A200012D4DFED0E7AB4EEE70AF1EE10FAB1D53A
:105A3000002000F06DB8002000F070B830EE000AD1
:105A400070479FED070A7047002000F05BB800BF69
:105A5000C83103341772B142B4F1CFC2CF8ECEC277
:105A6000000000000000000008B52DED028BB0EE34
:105A7000408B00F079F8B4EE488BF1EE10FA0FD6B7
:105A8000B5EEC08BF1EE10FA0AD8B5EE408BF1EE10
:105A900010FA08D1FBF78AFF22239FED090B036060
:105AA000BDEC028B08BDFBF781FF212203460648AF
:105AB000BDEC028B1A60BDE8084000F0BDBA00BF23
:105AC000000000000000F0FFF8B1053410B52DED26
:105AD000028BB0EE408A0446FBF768FF0460B0EE2C
:105AE000480ABDEC028B10BD28B1F1EE407A2220AD
:105AF00027EE800AEAE7F0EE407A222027EE800ABD
:105B0000E4E700BF9FED010AEEE700BF00000010D0
:105B10009FED010AE8E700BF0000201A9FED010A8F
:105B2000E2E700BF00000070F7EE007A0028BFEE49
:105B3000007A9FED040A4FF0220047FE877A87EE35
:105B4000800AC3E700000000F0EE407A30EE407AB1
:105B5000F4EE677A87EE070AF1EE10FA01D62120FB
:105B6000B4E770470000000000B52DED028B83B054
:105B70008DED000B019BB3F5801F1DDA23F0004271
:105B800000990A4346D0002B4FDB394A6FF0350CA1
:105B90009DED006B9FED2A7B26EE077B8DED007B54
:105BA000019B93420DDD9DED007B37EE070B03B0AB
:105BB000BDEC028B5DF804FB2D4A4FF0000C9342C4
:105BC000F1DC1815C3F31301A0F2FF30604440F27A
:105BD000FF3CACEBD07C00EBD070DDE9002341EA68
:105BE0000C5307EE900A43EC102BB8EEE78B00F055
:105BF000ABF89FED155B9FED166B9FED177B20EECD
:105C0000050BA8EE060BA8EE070B03B0BDEC028B4C
:105C10005DF804FB9FED126B9FED137B86EE070B87
:105C200003B0BDEC028B5DF804FB9DED007B37EE0D
:105C3000476B9FED0D7B86EE070BB8E7AFF3008057
:105C400000000000000050430EE526157BCBDB3F33
:105C5000362BF111F3FE593D00609F501344D33FA2
:105C600000000000000050C3000000000000000021
:105C7000FFFFEF7F10EE103AB3F17E5F3BD0A3F54C
:105C800000011A46B1F1FE4F38D22A49BFEE000B8F
:105C900029481144294B0840C1F3C34CC915121AB5
:105CA00003EE901A02EE902AB8EEE33BB7EEE22A3A
:105CB00093ED445B93ED467B93ED404B93ED426B4C
:105CC00003EB0C132DED028B93ED008B93ED021B78
:105CD000A8EE020BA3EE041BBDEC028BA5EE007B2D
:105CE00020EE005B30EE010BA6EE057BA5EE070B68
:105CF000B7EEC00B70479FED120A7047590014D0E1
:105D0000B3F1FF4F14D0B1F17F4F0AD2002B08DB63
:105D1000DFED0C7A60EE277A17EE903AA3F1386245
:105D2000B3E700EE103AFFF70FBF0120FFF7FCBE0C
:105D3000704700BF0000CDC0000080FF1033033467
:105D4000000000000000004B70B5794C4FF0FF3EA2
:105D5000784D53EC102B1C4496451E461046A54129
:105D60002DED068B4FD24FEA134C47F6DF74ACF1A2
:105D70001005A54200F2A0806F4ABFEE008B6F4B6A
:105D80003244C2F346344FEA225C6FF3130203EB52
:105D90000415041E93ED0C4B93ED005B93ED083B53
:105DA00095ED240B93ED022B93ED041B93ED067BF5
:105DB00093ED0A6B2B46B51A45EC194BA0EE098BF7
:105DC000A4EE086B04EE90CAA3EE087BB8EEE43BA9
:105DD00093ED264BA5EE034B38EE045B34EE450BFA
:105DE00028EE084B30EE080BA2EE030BA6EE047B68
:105DF00028EE048BA1EE040BA8EE070B30EE050B8A
:105E0000BDEC068B70BD4E4CA34208BF002A7DD06E
:105E1000B7EE007B494991ED1E4B30EE477B91ED8B
:105E20001C6B27EE072BA4EE076B91ED185B91ED31
:105E3000201B91ED163B91ED1A4B9FED378BA5EE94
:105E4000073BA1EE026B91ED225BA4EE023BB0EEAC
:105E5000460BB0EE476B91ED124BA7EE086BB0EE20
:105E600043AB27EE023BA7EE486BA5EE030B91ED8B
:105E70000E8B26EE069B37EE461BA0EE03ABB0EE74
:105E8000470B37EE066B28EE011BA9EE080B91EDD0
:105E9000105BA4EE075B37EE407BA9EE087BA1EE1A
:105EA000067B91ED146BA6EE025BAAEE035BA5EEFA
:105EB000037B30EE070BA3E7941843EB03052C4359
:105EC0001DD0204CA34208BF002A99D01CF4004FDB
:105ED0000DD147F6F07131EA0C0108D09FED107B2F
:105EE00020EE077B51EC170BA1F1507644E7BDEC97
:105EF000068B43EC102BBDE8704000F075B8BDEC8C
:105F0000068B0120BDE8704000F056B89FED060BEF
:105F100076E700BFAFF30080000000000000A04162
:105F200000000000000030430000000000000000FE
:105F3000000012C0FF08030000001AC03034033410
:105F40000000F03F0000F07F10B52DED028BB0EEA9
:105F5000408B0446FBF72AFD0460B0EE480BBDEC15
:105F6000028B10BD82B050B1B1EE407B22208DED8E
:105F7000007B9DED007B20EE070B02B0E4E7B0EE66
:105F8000407BF3E79FED020BECE700BFAFF300802F
:105F900000000000000000109FED010BE2E700BFD1
:105FA000000000000000581E9FED010BDAE700BF63
:105FB0000000000000000070BFEE005B82B0B7EE92
:105FC000007B00284FF0220007FE057B8DED007B53
:105FD0009FED036B9DED000B80EE060B02B0B3E767
:105FE0000000000000000000B0EE407B30EE406B8F
:105FF000B4EE477B86EE060BF1EE10FA01D62120B7
:10600000A2E77047B5EE400BF1EE10FA00D07047F2
:10601000222099E79FED066BB0EEC07BB4EE467B85
:10602000F1EE10FA00DC704722208DE7AFF300801C
:10603000FFFFFFFFFFFFEF7F9FED010B704700BFEA
:10604000000000000000F87FB1EEC00A704700BFFA
:10605000054A0346106810B10344136070470348B3
:1060600003441360704700BFF4F6053460470B34F7
:1060700081F0004102E000BF83F0004330B54FEAF9
:1060800041044FEA430594EA050F08BF90EA020F66
:106090001FBF54EA000C55EA020C7FEA645C7FEAF9
:1060A000655C00F0E2804FEA5454D4EB5555B8BF1C
:1060B0006D420CDD2C4480EA020281EA030382EA8D
